{
  "_format": "hh-sol-artifact-1",
  "contractName": "PlatzLandNFTWithCollections",
  "sourceName": "contracts/PlatzLandNFTWithCollections.sol",
  "abi": [
    {
      "inputs": [
        {
          "internalType": "address",
          "name": "initialOwner",
          "type": "address"
        }
      ],
      "stateMutability": "nonpayable",
      "type": "constructor"
    },
    {
      "inputs": [
        {
          "internalType": "address",
          "name": "sender",
          "type": "address"
        },
        {
          "internalType": "uint256",
          "name": "tokenId",
          "type": "uint256"
        },
        {
          "internalType": "address",
          "name": "owner",
          "type": "address"
        }
      ],
      "name": "ERC721IncorrectOwner",
      "type": "error"
    },
    {
      "inputs": [
        {
          "internalType": "address",
          "name": "operator",
          "type": "address"
        },
        {
          "internalType": "uint256",
          "name": "tokenId",
          "type": "uint256"
        }
      ],
      "name": "ERC721InsufficientApproval",
      "type": "error"
    },
    {
      "inputs": [
        {
          "internalType": "address",
          "name": "approver",
          "type": "address"
        }
      ],
      "name": "ERC721InvalidApprover",
      "type": "error"
    },
    {
      "inputs": [
        {
          "internalType": "address",
          "name": "operator",
          "type": "address"
        }
      ],
      "name": "ERC721InvalidOperator",
      "type": "error"
    },
    {
      "inputs": [
        {
          "internalType": "address",
          "name": "owner",
          "type": "address"
        }
      ],
      "name": "ERC721InvalidOwner",
      "type": "error"
    },
    {
      "inputs": [
        {
          "internalType": "address",
          "name": "receiver",
          "type": "address"
        }
      ],
      "name": "ERC721InvalidReceiver",
      "type": "error"
    },
    {
      "inputs": [
        {
          "internalType": "address",
          "name": "sender",
          "type": "address"
        }
      ],
      "name": "ERC721InvalidSender",
      "type": "error"
    },
    {
      "inputs": [
        {
          "internalType": "uint256",
          "name": "tokenId",
          "type": "uint256"
        }
      ],
      "name": "ERC721NonexistentToken",
      "type": "error"
    },
    {
      "inputs": [
        {
          "internalType": "address",
          "name": "owner",
          "type": "address"
        }
      ],
      "name": "OwnableInvalidOwner",
      "type": "error"
    },
    {
      "inputs": [
        {
          "internalType": "address",
          "name": "account",
          "type": "address"
        }
      ],
      "name": "OwnableUnauthorizedAccount",
      "type": "error"
    },
    {
      "anonymous": false,
      "inputs": [
        {
          "indexed": true,
          "internalType": "address",
          "name": "owner",
          "type": "address"
        },
        {
          "indexed": true,
          "internalType": "address",
          "name": "approved",
          "type": "address"
        },
        {
          "indexed": true,
          "internalType": "uint256",
          "name": "tokenId",
          "type": "uint256"
        }
      ],
      "name": "Approval",
      "type": "event"
    },
    {
      "anonymous": false,
      "inputs": [
        {
          "indexed": true,
          "internalType": "address",
          "name": "owner",
          "type": "address"
        },
        {
          "indexed": true,
          "internalType": "address",
          "name": "operator",
          "type": "address"
        },
        {
          "indexed": false,
          "internalType": "bool",
          "name": "approved",
          "type": "bool"
        }
      ],
      "name": "ApprovalForAll",
      "type": "event"
    },
    {
      "anonymous": false,
      "inputs": [
        {
          "indexed": false,
          "internalType": "uint256",
          "name": "_fromTokenId",
          "type": "uint256"
        },
        {
          "indexed": false,
          "internalType": "uint256",
          "name": "_toTokenId",
          "type": "uint256"
        }
      ],
      "name": "BatchMetadataUpdate",
      "type": "event"
    },
    {
      "anonymous": false,
      "inputs": [
        {
          "indexed": true,
          "internalType": "uint256",
          "name": "collectionId",
          "type": "uint256"
        },
        {
          "indexed": false,
          "internalType": "uint256",
          "name": "startTokenId",
          "type": "uint256"
        },
        {
          "indexed": false,
          "internalType": "uint256",
          "name": "quantity",
          "type": "uint256"
        }
      ],
      "name": "BatchMinted",
      "type": "event"
    },
    {
      "anonymous": false,
      "inputs": [
        {
          "indexed": true,
          "internalType": "uint256",
          "name": "collectionId",
          "type": "uint256"
        },
        {
          "indexed": true,
          "internalType": "uint256",
          "name": "mainTokenId",
          "type": "uint256"
        },
        {
          "indexed": true,
          "internalType": "address",
          "name": "creator",
          "type": "address"
        }
      ],
      "name": "CollectionCreated",
      "type": "event"
    },
    {
      "anonymous": false,
      "inputs": [
        {
          "indexed": false,
          "internalType": "uint256",
          "name": "_tokenId",
          "type": "uint256"
        }
      ],
      "name": "MetadataUpdate",
      "type": "event"
    },
    {
      "anonymous": false,
      "inputs": [
        {
          "indexed": true,
          "internalType": "address",
          "name": "previousOwner",
          "type": "address"
        },
        {
          "indexed": true,
          "internalType": "address",
          "name": "newOwner",
          "type": "address"
        }
      ],
      "name": "OwnershipTransferred",
      "type": "event"
    },
    {
      "anonymous": false,
      "inputs": [
        {
          "indexed": true,
          "internalType": "uint256",
          "name": "tokenId",
          "type": "uint256"
        },
        {
          "indexed": true,
          "internalType": "address",
          "name": "owner",
          "type": "address"
        },
        {
          "indexed": false,
          "internalType": "string",
          "name": "propertyReference",
          "type": "string"
        }
      ],
      "name": "PropertyMinted",
      "type": "event"
    },
    {
      "anonymous": false,
      "inputs": [
        {
          "indexed": true,
          "internalType": "address",
          "name": "from",
          "type": "address"
        },
        {
          "indexed": true,
          "internalType": "address",
          "name": "to",
          "type": "address"
        },
        {
          "indexed": true,
          "internalType": "uint256",
          "name": "tokenId",
          "type": "uint256"
        }
      ],
      "name": "Transfer",
      "type": "event"
    },
    {
      "inputs": [
        {
          "internalType": "address",
          "name": "to",
          "type": "address"
        },
        {
          "internalType": "uint256",
          "name": "tokenId",
          "type": "uint256"
        }
      ],
      "name": "approve",
      "outputs": [],
      "stateMutability": "nonpayable",
      "type": "function"
    },
    {
      "inputs": [
        {
          "internalType": "address",
          "name": "owner",
          "type": "address"
        }
      ],
      "name": "balanceOf",
      "outputs": [
        {
          "internalType": "uint256",
          "name": "",
          "type": "uint256"
        }
      ],
      "stateMutability": "view",
      "type": "function"
    },
    {
      "inputs": [
        {
          "internalType": "uint256",
          "name": "tokenId",
          "type": "uint256"
        }
      ],
      "name": "burn",
      "outputs": [],
      "stateMutability": "nonpayable",
      "type": "function"
    },
    {
      "inputs": [
        {
          "internalType": "address",
          "name": "to",
          "type": "address"
        },
        {
          "internalType": "string",
          "name": "mainTokenURI",
          "type": "string"
        },
        {
          "internalType": "uint256",
          "name": "quantity",
          "type": "uint256"
        },
        {
          "internalType": "string",
          "name": "collectionURI",
          "type": "string"
        },
        {
          "internalType": "string",
          "name": "baseURI",
          "type": "string"
        }
      ],
      "name": "createCollection",
      "outputs": [
        {
          "internalType": "uint256",
          "name": "",
          "type": "uint256"
        },
        {
          "internalType": "uint256",
          "name": "",
          "type": "uint256"
        }
      ],
      "stateMutability": "nonpayable",
      "type": "function"
    },
    {
      "inputs": [],
      "name": "getAllCollectionIds",
      "outputs": [
        {
          "internalType": "uint256[]",
          "name": "",
          "type": "uint256[]"
        }
      ],
      "stateMutability": "view",
      "type": "function"
    },
    {
      "inputs": [
        {
          "internalType": "uint256",
          "name": "tokenId",
          "type": "uint256"
        }
      ],
      "name": "getApproved",
      "outputs": [
        {
          "internalType": "address",
          "name": "",
          "type": "address"
        }
      ],
      "stateMutability": "view",
      "type": "function"
    },
    {
      "inputs": [
        {
          "internalType": "uint256",
          "name": "collectionId",
          "type": "uint256"
        }
      ],
      "name": "getCollection",
      "outputs": [
        {
          "internalType": "uint256",
          "name": "startTokenId",
          "type": "uint256"
        },
        {
          "internalType": "uint256",
          "name": "totalSupply",
          "type": "uint256"
        },
        {
          "internalType": "uint256",
          "name": "mainTokenId",
          "type": "uint256"
        },
        {
          "internalType": "string",
          "name": "baseURI",
          "type": "string"
        },
        {
          "internalType": "string",
          "name": "collectionURI",
          "type": "string"
        },
        {
          "internalType": "address",
          "name": "creator",
          "type": "address"
        }
      ],
      "stateMutability": "view",
      "type": "function"
    },
    {
      "inputs": [],
      "name": "getCollectionCount",
      "outputs": [
        {
          "internalType": "uint256",
          "name": "",
          "type": "uint256"
        }
      ],
      "stateMutability": "view",
      "type": "function"
    },
    {
      "inputs": [
        {
          "internalType": "uint256",
          "name": "offset",
          "type": "uint256"
        },
        {
          "internalType": "uint256",
          "name": "limit",
          "type": "uint256"
        }
      ],
      "name": "getCollectionsPaginated",
      "outputs": [
        {
          "internalType": "uint256[]",
          "name": "",
          "type": "uint256[]"
        }
      ],
      "stateMutability": "view",
      "type": "function"
    },
    {
      "inputs": [
        {
          "internalType": "uint256",
          "name": "tokenId",
          "type": "uint256"
        }
      ],
      "name": "getPropertyDetails",
      "outputs": [
        {
          "components": [
            {
              "internalType": "string",
              "name": "propertyReference",
              "type": "string"
            },
            {
              "internalType": "address",
              "name": "creator",
              "type": "address"
            },
            {
              "internalType": "uint256",
              "name": "mintTimestamp",
              "type": "uint256"
            }
          ],
          "internalType": "struct PlatzLandNFTWithCollections.Property",
          "name": "",
          "type": "tuple"
        }
      ],
      "stateMutability": "view",
      "type": "function"
    },
    {
      "inputs": [
        {
          "internalType": "uint256",
          "name": "tokenId",
          "type": "uint256"
        }
      ],
      "name": "getTokenCollection",
      "outputs": [
        {
          "internalType": "uint256",
          "name": "",
          "type": "uint256"
        }
      ],
      "stateMutability": "view",
      "type": "function"
    },
    {
      "inputs": [
        {
          "internalType": "address",
          "name": "owner",
          "type": "address"
        },
        {
          "internalType": "address",
          "name": "operator",
          "type": "address"
        }
      ],
      "name": "isApprovedForAll",
      "outputs": [
        {
          "internalType": "bool",
          "name": "",
          "type": "bool"
        }
      ],
      "stateMutability": "view",
      "type": "function"
    },
    {
      "inputs": [
        {
          "internalType": "address",
          "name": "to",
          "type": "address"
        },
        {
          "internalType": "string",
          "name": "propertyReference",
          "type": "string"
        },
        {
          "internalType": "string",
          "name": "metadataURI",
          "type": "string"
        }
      ],
      "name": "mintLand",
      "outputs": [
        {
          "internalType": "uint256",
          "name": "",
          "type": "uint256"
        }
      ],
      "stateMutability": "nonpayable",
      "type": "function"
    },
    {
      "inputs": [],
      "name": "name",
      "outputs": [
        {
          "internalType": "string",
          "name": "",
          "type": "string"
        }
      ],
      "stateMutability": "view",
      "type": "function"
    },
    {
      "inputs": [],
      "name": "owner",
      "outputs": [
        {
          "internalType": "address",
          "name": "",
          "type": "address"
        }
      ],
      "stateMutability": "view",
      "type": "function"
    },
    {
      "inputs": [
        {
          "internalType": "uint256",
          "name": "tokenId",
          "type": "uint256"
        }
      ],
      "name": "ownerOf",
      "outputs": [
        {
          "internalType": "address",
          "name": "",
          "type": "address"
        }
      ],
      "stateMutability": "view",
      "type": "function"
    },
    {
      "inputs": [],
      "name": "renounceOwnership",
      "outputs": [],
      "stateMutability": "nonpayable",
      "type": "function"
    },
    {
      "inputs": [
        {
          "internalType": "address",
          "name": "from",
          "type": "address"
        },
        {
          "internalType": "address",
          "name": "to",
          "type": "address"
        },
        {
          "internalType": "uint256",
          "name": "tokenId",
          "type": "uint256"
        }
      ],
      "name": "safeTransferFrom",
      "outputs": [],
      "stateMutability": "nonpayable",
      "type": "function"
    },
    {
      "inputs": [
        {
          "internalType": "address",
          "name": "from",
          "type": "address"
        },
        {
          "internalType": "address",
          "name": "to",
          "type": "address"
        },
        {
          "internalType": "uint256",
          "name": "tokenId",
          "type": "uint256"
        },
        {
          "internalType": "bytes",
          "name": "data",
          "type": "bytes"
        }
      ],
      "name": "safeTransferFrom",
      "outputs": [],
      "stateMutability": "nonpayable",
      "type": "function"
    },
    {
      "inputs": [
        {
          "internalType": "address",
          "name": "operator",
          "type": "address"
        },
        {
          "internalType": "bool",
          "name": "approved",
          "type": "bool"
        }
      ],
      "name": "setApprovalForAll",
      "outputs": [],
      "stateMutability": "nonpayable",
      "type": "function"
    },
    {
      "inputs": [
        {
          "internalType": "bytes4",
          "name": "interfaceId",
          "type": "bytes4"
        }
      ],
      "name": "supportsInterface",
      "outputs": [
        {
          "internalType": "bool",
          "name": "",
          "type": "bool"
        }
      ],
      "stateMutability": "view",
      "type": "function"
    },
    {
      "inputs": [],
      "name": "symbol",
      "outputs": [
        {
          "internalType": "string",
          "name": "",
          "type": "string"
        }
      ],
      "stateMutability": "view",
      "type": "function"
    },
    {
      "inputs": [
        {
          "internalType": "uint256",
          "name": "tokenId",
          "type": "uint256"
        }
      ],
      "name": "tokenURI",
      "outputs": [
        {
          "internalType": "string",
          "name": "",
          "type": "string"
        }
      ],
      "stateMutability": "view",
      "type": "function"
    },
    {
      "inputs": [
        {
          "internalType": "address",
          "name": "from",
          "type": "address"
        },
        {
          "internalType": "address",
          "name": "to",
          "type": "address"
        },
        {
          "internalType": "uint256",
          "name": "tokenId",
          "type": "uint256"
        }
      ],
      "name": "transferFrom",
      "outputs": [],
      "stateMutability": "nonpayable",
      "type": "function"
    },
    {
      "inputs": [
        {
          "internalType": "address",
          "name": "newOwner",
          "type": "address"
        }
      ],
      "name": "transferOwnership",
      "outputs": [],
      "stateMutability": "nonpayable",
      "type": "function"
    },
    {
      "inputs": [
        {
          "internalType": "uint256",
          "name": "tokenId",
          "type": "uint256"
        },
        {
          "internalType": "string",
          "name": "newTokenURI",
          "type": "string"
        }
      ],
      "name": "updateTokenURI",
      "outputs": [],
      "stateMutability": "nonpayable",
      "type": "function"
    }
  ],
  "bytecode": "0x608060405260016009553480156200001657600080fd5b506040516200282338038062002823833981016040819052620000399162000137565b806040518060400160405280601081526020016f283630ba3d102630b732102a37b5b2b760811b8152506040518060400160405280600481526020016328262a2d60e11b81525081600090816200009191906200020e565b506001620000a082826200020e565b5050506001600160a01b038116620000d257604051631e4fbdf760e01b81526000600482015260240160405180910390fd5b620000dd81620000e5565b5050620002da565b600780546001600160a01b038381166001600160a01b0319831681179093556040519116919082907f8be0079c531659141344cd1fd0a4f28419497f9722a3daafe3b4186f6b6457e090600090a35050565b6000602082840312156200014a57600080fd5b81516001600160a01b03811681146200016257600080fd5b9392505050565b634e487b7160e01b600052604160045260246000fd5b600181811c908216806200019457607f821691505b602082108103620001b557634e487b7160e01b600052602260045260246000fd5b50919050565b601f8211156200020957600081815260208120601f850160051c81016020861015620001e45750805b601f850160051c820191505b818110156200020557828155600101620001f0565b5050505b505050565b81516001600160401b038111156200022a576200022a62000169565b62000242816200023b84546200017f565b84620001bb565b602080601f8311600181146200027a5760008415620002615750858301515b600019600386901b1c1916600185901b17855562000205565b600085815260208120601f198616915b82811015620002ab578886015182559484019460019091019084016200028a565b5085821015620002ca5787850151600019600388901b60f8161c191681555b5050505050600190811b01905550565b61253980620002ea6000396000f3fe608060405234801561001057600080fd5b506004361061018e5760003560e01c80635df44c92116100de5780639a85c64811610097578063c87b56dd11610071578063c87b56dd14610383578063e985e9c514610396578063e9df613c146103a9578063f2fde38b146103bc57600080fd5b80639a85c64814610355578063a22cb4651461035d578063b88d4fde1461037057600080fd5b80635df44c92146102ee5780636352211e1461030e57806370a0823114610321578063715018a6146103345780638da5cb5b1461033c57806395d89b411461034d57600080fd5b80631c10106f1161014b5780632afceea0116101255780632afceea01461029057806342842e0e146102a357806342966c68146102b65780635a1f3c28146102c957600080fd5b80631c10106f1461024357806323b872dd1461025557806326d7950d1461026857600080fd5b806301ffc9a71461019357806306fdde03146101bb578063081812fc146101d0578063095ea7b3146101fb578063126dbe431461021057806318e97fd114610230575b600080fd5b6101a66101a1366004611ca8565b6103cf565b60405190151581526020015b60405180910390f35b6101c36103fa565b6040516101b29190611d15565b6101e36101de366004611d28565b61048c565b6040516001600160a01b0390911681526020016101b2565b61020e610209366004611d5d565b6104b5565b005b61022361021e366004611d28565b6104c4565b6040516101b29190611d87565b61020e61023e366004611e17565b61061f565b600c545b6040519081526020016101b2565b61020e610263366004611e63565b6106eb565b61027b610276366004611e9f565b610776565b604080519283526020830191909152016101b2565b61024761029e366004611f53565b610a87565b61020e6102b1366004611e63565b610bd1565b61020e6102c4366004611d28565b610bec565b6102dc6102d7366004611d28565b610ca8565b6040516101b296959493929190611fd4565b6103016102fc366004612027565b610ed9565b6040516101b29190612049565b6101e361031c366004611d28565b610fd2565b61024761032f36600461208d565b610fdd565b61020e611025565b6007546001600160a01b03166101e3565b6101c3611039565b610301611048565b61020e61036b3660046120a8565b61109f565b61020e61037e3660046120fa565b6110aa565b6101c3610391366004611d28565b6110c2565b6101a66103a43660046121d6565b6111e9565b6102476103b7366004611d28565b611217565b61020e6103ca36600461208d565b611285565b60006001600160e01b03198216632483248360e11b14806103f457506103f4826112c3565b92915050565b60606000805461040990612209565b80601f016020809104026020016040519081016040528092919081815260200182805461043590612209565b80156104825780601f1061045757610100808354040283529160200191610482565b820191906000526020600020905b81548152906001019060200180831161046557829003601f168201915b5050505050905090565b600061049782611313565b506000828152600460205260409020546001600160a01b03166103f4565b6104c082823361134c565b5050565b6104f160405180606001604052806060815260200160006001600160a01b03168152602001600081525090565b6000828152600260205260409020546001600160a01b03166105515760405162461bcd60e51b8152602060048201526014602482015273151bdad95b88191bd95cc81b9bdd08195e1a5cdd60621b60448201526064015b60405180910390fd5b6000828152600d60205260409081902081516060810190925280548290829061057990612209565b80601f01602080910402602001604051908101604052809291908181526020018280546105a590612209565b80156105f25780601f106105c7576101008083540402835291602001916105f2565b820191906000526020600020905b8154815290600101906020018083116105d557829003601f168201915b505050918352505060018201546001600160a01b0316602082015260029091015460409091015292915050565b610627611359565b6000838152600260205260409020546001600160a01b03166106a65760405162461bcd60e51b815260206004820152603260248201527f45524337323155524953746f726167653a205552492075706461746520666f72604482015271103737b732bc34b9ba32b73a103a37b5b2b760711b6064820152608401610548565b6106e68383838080601f01602080910402602001604051908101604052809392919081815260200183838082843760009201919091525061138692505050565b505050565b6001600160a01b03821661071557604051633250574960e11b815260006004820152602401610548565b60006107228383336113d6565b9050836001600160a01b0316816001600160a01b031614610770576040516364283d7b60e01b81526001600160a01b0380861660048301526024820184905282166044820152606401610548565b50505050565b600080600087116107c95760405162461bcd60e51b815260206004820152601f60248201527f5175616e74697479206d7573742062652067726561746572207468616e2030006044820152606401610548565b60088054600091826107da83612259565b9190505590506107ea8b826114cf565b61082a818b8b8080601f01602080910402602001604051908101604052809392919081815260200183838082843760009201919091525061138692505050565b600980546000918261083b83612259565b909155506008546040805160e0810190915281815291925090602081016108638c6001612272565b815260200184815260200188888080601f016020809104026020016040519081016040528093929190818152602001838380828437600092019190915250505090825250604080516020601f8d018190048102820181019092528b815291810191908c908c9081908401838280828437600092018290525093855250503360208085019190915260016040948501819052878452600b825292849020855181559085015192810192909255509082015160028201556060820151600382019061092c90826122cb565b506080820151600482019061094190826122cb565b5060a08201516005909101805460c0909301511515600160a01b026001600160a81b03199093166001600160a01b0390921691909117919091179055600c8054600181019091557fdf6966c971051c3d54ec59162606531493a51404a002842f56009d7e5cf4a8c7018290556000838152600a602052604081208390555b8a811015610a0b5760088054600091826109d883612259565b9190505590506109e88f826114cf565b6000908152600a6020526040902083905580610a0381612259565b9150506109bf565b506040513390849084907f15f0768ddb29abfbb7cb3b54a0f082e5b441cf04715c8cb8226cc866fbfbba5b90600090a460408051828152602081018c905283917fbea5274bb795fbec77ea4894c80e1ab681c5f3b157332d6d39d8802514b2b82e910160405180910390a2509b909a5098505050505050505050565b6008805460009182919082610a9b83612259565b919050559050610aab87826114cf565b610aeb8185858080601f01602080910402602001604051908101604052809392919081815260200183838082843760009201919091525061138692505050565b604051806060016040528087878080601f016020809104026020016040519081016040528093929190818152602001838380828437600092018290525093855250503360208085019190915242604094850152858352600d9052502081518190610b5590826122cb565b5060208201516001820180546001600160a01b0319166001600160a01b0392831617905560409283015160029092019190915590519088169082907f0d6a75679ec9091a61a3192722f7073bfdf34a0e67c61c08484adef28bfa375a90610bbf908a908a9061238b565b60405180910390a39695505050505050565b6106e6838383604051806020016040528060008152506110aa565b6000610bf782610fd2565b9050610c04813384611534565b610c675760405162461bcd60e51b815260206004820152602e60248201527f506c61747a4c616e644e46543a2063616c6c6572206973206e6f74206f776e6560448201526d1c881b9bdc88185c1c1c9bdd995960921b6064820152608401610548565b610c708261159a565b6000828152600d6020526040812090610c898282611c44565b506001810180546001600160a01b031916905560006002909101555050565b6000818152600b60205260408120600501548190819060609081908390600160a01b900460ff16610d1b5760405162461bcd60e51b815260206004820152601960248201527f436f6c6c656374696f6e20646f6573206e6f74206578697374000000000000006044820152606401610548565b6000600b60008981526020019081526020016000206040518060e0016040529081600082015481526020016001820154815260200160028201548152602001600382018054610d6990612209565b80601f0160208091040260200160405190810160405280929190818152602001828054610d9590612209565b8015610de25780601f10610db757610100808354040283529160200191610de2565b820191906000526020600020905b815481529060010190602001808311610dc557829003601f168201915b50505050508152602001600482018054610dfb90612209565b80601f0160208091040260200160405190810160405280929190818152602001828054610e2790612209565b8015610e745780601f10610e4957610100808354040283529160200191610e74565b820191906000526020600020905b815481529060010190602001808311610e5757829003601f168201915b5050509183525050600591909101546001600160a01b038116602080840191909152600160a01b90910460ff161515604092830152825190830151918301516060840151608085015160a090950151929d939c50909a50985091965090945092505050565b600c54606090808410610efc5750506040805160008152602081019091526103f4565b600081610f098587612272565b11610f145783610f1e565b610f1e85836123ba565b905060008167ffffffffffffffff811115610f3b57610f3b6120e4565b604051908082528060200260200182016040528015610f64578160200160208202803683370190505b50905060005b82811015610fc857600c610f7e8289612272565b81548110610f8e57610f8e6123cd565b9060005260206000200154828281518110610fab57610fab6123cd565b602090810291909101015280610fc081612259565b915050610f6a565b5095945050505050565b60006103f482611313565b60006001600160a01b038216611009576040516322718ad960e21b815260006004820152602401610548565b506001600160a01b031660009081526003602052604090205490565b61102d611359565b61103760006115d5565b565b60606001805461040990612209565b6060600c80548060200260200160405190810160405280929190818152602001828054801561048257602002820191906000526020600020905b815481526020019060010190808311611082575050505050905090565b6104c0338383611627565b6110b58484846106eb565b61077033858585856116c6565b6000818152600260205260409020546060906001600160a01b03166111415760405162461bcd60e51b815260206004820152602f60248201527f4552433732314d657461646174613a2055524920717565727920666f72206e6f60448201526e3732bc34b9ba32b73a103a37b5b2b760891b6064820152608401610548565b600061114c836117f1565b80519091501561115c5792915050565b6000838152600a602052604090205480156111d2576000818152600b6020526040812060038101805491929161119190612209565b905011156111d057806003016111a6866118fa565b6040516020016111b79291906123e3565b6040516020818303038152906040529350505050919050565b505b505060408051602081019091526000815292915050565b6001600160a01b03918216600090815260056020908152604080832093909416825291909152205460ff1690565b6000818152600260205260408120546001600160a01b03166112725760405162461bcd60e51b8152602060048201526014602482015273151bdad95b88191bd95cc81b9bdd08195e1a5cdd60621b6044820152606401610548565b506000908152600a602052604090205490565b61128d611359565b6001600160a01b0381166112b757604051631e4fbdf760e01b815260006004820152602401610548565b6112c0816115d5565b50565b60006001600160e01b031982166380ac58cd60e01b14806112f457506001600160e01b03198216635b5e139f60e01b145b806103f457506301ffc9a760e01b6001600160e01b03198316146103f4565b6000818152600260205260408120546001600160a01b0316806103f457604051637e27328960e01b815260048101849052602401610548565b6106e6838383600161198d565b6007546001600160a01b031633146110375760405163118cdaa760e01b8152336004820152602401610548565b600082815260066020526040902061139e82826122cb565b506040518281527ff8e1a15aba9398e019f0b49df1a4fde98ee17ae345cb5f6b5e2c27f5033e8ce79060200160405180910390a15050565b6000828152600260205260408120546001600160a01b039081169083161561140357611403818486611a93565b6001600160a01b038116156114415761142060008560008061198d565b6001600160a01b038116600090815260036020526040902080546000190190555b6001600160a01b03851615611470576001600160a01b0385166000908152600360205260409020805460010190555b60008481526002602052604080822080546001600160a01b0319166001600160a01b0389811691821790925591518793918516917fddf252ad1be2c89b69c2b068fc378daa952ba7f163c4a11628f55a4df523b3ef91a4949350505050565b6001600160a01b0382166114f957604051633250574960e11b815260006004820152602401610548565b6000611507838360006113d6565b90506001600160a01b038116156106e6576040516339e3563760e11b815260006004820152602401610548565b60006001600160a01b038316158015906115925750826001600160a01b0316846001600160a01b0316148061156e575061156e84846111e9565b8061159257506000828152600460205260409020546001600160a01b038481169116145b949350505050565b60006115a960008360006113d6565b90506001600160a01b0381166104c057604051637e27328960e01b815260048101839052602401610548565b600780546001600160a01b038381166001600160a01b0319831681179093556040519116919082907f8be0079c531659141344cd1fd0a4f28419497f9722a3daafe3b4186f6b6457e090600090a35050565b6001600160a01b03821661165957604051630b61174360e31b81526001600160a01b0383166004820152602401610548565b6001600160a01b03838116600081815260056020908152604080832094871680845294825291829020805460ff191686151590811790915591519182527f17307eab39ab6107e8899845ad3d59bd9653f200f220920489ca2b5937696c31910160405180910390a3505050565b6001600160a01b0383163b156117ea57604051630a85bd0160e11b81526001600160a01b0384169063150b7a029061170890889088908790879060040161247a565b6020604051808303816000875af1925050508015611743575060408051601f3d908101601f19168201909252611740918101906124b7565b60015b6117ac573d808015611771576040519150601f19603f3d011682016040523d82523d6000602084013e611776565b606091505b5080516000036117a457604051633250574960e11b81526001600160a01b0385166004820152602401610548565b805181602001fd5b6001600160e01b03198116630a85bd0160e11b146117e857604051633250574960e11b81526001600160a01b0385166004820152602401610548565b505b5050505050565b60606117fc82611313565b506000828152600660205260408120805461181690612209565b80601f016020809104026020016040519081016040528092919081815260200182805461184290612209565b801561188f5780601f106118645761010080835404028352916020019161188f565b820191906000526020600020905b81548152906001019060200180831161187257829003601f168201915b5050505050905060006118ad60408051602081019091526000815290565b905080516000036118bf575092915050565b8151156118f15780826040516020016118d99291906124d4565b60405160208183030381529060405292505050919050565b61159284611af7565b6060600061190783611b6c565b600101905060008167ffffffffffffffff811115611927576119276120e4565b6040519080825280601f01601f191660200182016040528015611951576020820181803683370190505b5090508181016020015b600019016f181899199a1a9b1b9c1cb0b131b232b360811b600a86061a8153600a850494508461195b57509392505050565b80806119a157506001600160a01b03821615155b15611a635760006119b184611313565b90506001600160a01b038316158015906119dd5750826001600160a01b0316816001600160a01b031614155b80156119f057506119ee81846111e9565b155b15611a195760405163a9fbf51f60e01b81526001600160a01b0384166004820152602401610548565b8115611a615783856001600160a01b0316826001600160a01b03167f8c5be1e5ebec7d5bd14f71427d1e84f3dd0314c0f7b2291e5b200ac8c7c3b92560405160405180910390a45b505b5050600090815260046020526040902080546001600160a01b0319166001600160a01b0392909216919091179055565b611a9e838383611534565b6106e6576001600160a01b038316611acc57604051637e27328960e01b815260048101829052602401610548565b60405163177e802f60e01b81526001600160a01b038316600482015260248101829052604401610548565b6060611b0282611313565b506000611b1a60408051602081019091526000815290565b90506000815111611b3a5760405180602001604052806000815250611b65565b80611b44846118fa565b604051602001611b559291906124d4565b6040516020818303038152906040525b9392505050565b60008072184f03e93ff9f4daa797ed6e38ed64bf6a1f0160401b8310611bab5772184f03e93ff9f4daa797ed6e38ed64bf6a1f0160401b830492506040015b6d04ee2d6d415b85acef81000000008310611bd7576d04ee2d6d415b85acef8100000000830492506020015b662386f26fc100008310611bf557662386f26fc10000830492506010015b6305f5e1008310611c0d576305f5e100830492506008015b6127108310611c2157612710830492506004015b60648310611c33576064830492506002015b600a83106103f45760010192915050565b508054611c5090612209565b6000825580601f10611c60575050565b601f0160209004906000526020600020908101906112c091905b80821115611c8e5760008155600101611c7a565b5090565b6001600160e01b0319811681146112c057600080fd5b600060208284031215611cba57600080fd5b8135611b6581611c92565b60005b83811015611ce0578181015183820152602001611cc8565b50506000910152565b60008151808452611d01816020860160208601611cc5565b601f01601f19169290920160200192915050565b602081526000611b656020830184611ce9565b600060208284031215611d3a57600080fd5b5035919050565b80356001600160a01b0381168114611d5857600080fd5b919050565b60008060408385031215611d7057600080fd5b611d7983611d41565b946020939093013593505050565b602081526000825160606020840152611da36080840182611ce9565b60208501516001600160a01b0316604085810191909152909401516060909301929092525090919050565b60008083601f840112611de057600080fd5b50813567ffffffffffffffff811115611df857600080fd5b602083019150836020828501011115611e1057600080fd5b9250929050565b600080600060408486031215611e2c57600080fd5b83359250602084013567ffffffffffffffff811115611e4a57600080fd5b611e5686828701611dce565b9497909650939450505050565b600080600060608486031215611e7857600080fd5b611e8184611d41565b9250611e8f60208501611d41565b9150604084013590509250925092565b60008060008060008060008060a0898b031215611ebb57600080fd5b611ec489611d41565b9750602089013567ffffffffffffffff80821115611ee157600080fd5b611eed8c838d01611dce565b909950975060408b0135965060608b0135915080821115611f0d57600080fd5b611f198c838d01611dce565b909650945060808b0135915080821115611f3257600080fd5b50611f3f8b828c01611dce565b999c989b5096995094979396929594505050565b600080600080600060608688031215611f6b57600080fd5b611f7486611d41565b9450602086013567ffffffffffffffff80821115611f9157600080fd5b611f9d89838a01611dce565b90965094506040880135915080821115611fb657600080fd5b50611fc388828901611dce565b969995985093965092949392505050565b86815285602082015284604082015260c060608201526000611ff960c0830186611ce9565b828103608084015261200b8186611ce9565b91505060018060a01b03831660a0830152979650505050505050565b6000806040838503121561203a57600080fd5b50508035926020909101359150565b6020808252825182820181905260009190848201906040850190845b8181101561208157835183529284019291840191600101612065565b50909695505050505050565b60006020828403121561209f57600080fd5b611b6582611d41565b600080604083850312156120bb57600080fd5b6120c483611d41565b9150602083013580151581146120d957600080fd5b809150509250929050565b634e487b7160e01b600052604160045260246000fd5b6000806000806080858703121561211057600080fd5b61211985611d41565b935061212760208601611d41565b925060408501359150606085013567ffffffffffffffff8082111561214b57600080fd5b818701915087601f83011261215f57600080fd5b813581811115612171576121716120e4565b604051601f8201601f19908116603f01168101908382118183101715612199576121996120e4565b816040528281528a60208487010111156121b257600080fd5b82602086016020830137600060208483010152809550505050505092959194509250565b600080604083850312156121e957600080fd5b6121f283611d41565b915061220060208401611d41565b90509250929050565b600181811c9082168061221d57607f821691505b60208210810361223d57634e487b7160e01b600052602260045260246000fd5b50919050565b634e487b7160e01b600052601160045260246000fd5b60006001820161226b5761226b612243565b5060010190565b808201808211156103f4576103f4612243565b601f8211156106e657600081815260208120601f850160051c810160208610156122ac5750805b601f850160051c820191505b818110156117e8578281556001016122b8565b815167ffffffffffffffff8111156122e5576122e56120e4565b6122f9816122f38454612209565b84612285565b602080601f83116001811461232e57600084156123165750858301515b600019600386901b1c1916600185901b1785556117e8565b600085815260208120601f198616915b8281101561235d5788860151825594840194600190910190840161233e565b508582101561237b5787850151600019600388901b60f8161c191681555b5050505050600190811b01905550565b60208152816020820152818360408301376000818301604090810191909152601f909201601f19160101919050565b818103818111156103f4576103f4612243565b634e487b7160e01b600052603260045260246000fd5b60008084546123f181612209565b60018281168015612409576001811461241e5761244d565b60ff198416875282151583028701945061244d565b8860005260208060002060005b858110156124445781548a82015290840190820161242b565b50505082870194505b505050508351612461818360208801611cc5565b64173539b7b760d91b9101908152600501949350505050565b6001600160a01b03858116825284166020820152604081018390526080606082018190526000906124ad90830184611ce9565b9695505050505050565b6000602082840312156124c957600080fd5b8151611b6581611c92565b600083516124e6818460208801611cc5565b8351908301906124fa818360208801611cc5565b0194935050505056fea26469706673582212208fc1af6815e17e837bedf1341b67c032a5a47fe8ae1850b2d3900bd6c5ea19f764736f6c63430008140033",
  "linkReferences": {},
  "deployedLinkReferences": {}
}